{
  "_format": "hh-sol-artifact-1",
  "contractName": "Tasks",
  "sourceName": "contracts/Tasks.sol",
  "abi": [
    {
      "inputs": [],
      "stateMutability": "nonpayable",
      "type": "constructor"
    },
    {
      "anonymous": false,
      "inputs": [
        {
          "indexed": false,
          "internalType": "string",
          "name": "did",
          "type": "string"
        },
        {
          "indexed": false,
          "internalType": "string",
          "name": "didDocument",
          "type": "string"
        }
      ],
      "name": "NewUserCreated",
      "type": "event"
    },
    {
      "anonymous": false,
      "inputs": [
        {
          "indexed": false,
          "internalType": "string",
          "name": "did",
          "type": "string"
        },
        {
          "indexed": false,
          "internalType": "string",
          "name": "uri",
          "type": "string"
        },
        {
          "indexed": false,
          "internalType": "string",
          "name": "title",
          "type": "string"
        },
        {
          "indexed": false,
          "internalType": "string",
          "name": "description",
          "type": "string"
        },
        {
          "indexed": false,
          "internalType": "string",
          "name": "status",
          "type": "string"
        },
        {
          "indexed": false,
          "internalType": "uint256",
          "name": "thours",
          "type": "uint256"
        }
      ],
      "name": "TaskCreated",
      "type": "event"
    },
    {
      "inputs": [
        {
          "internalType": "string",
          "name": "_did",
          "type": "string"
        },
        {
          "internalType": "string",
          "name": "_document",
          "type": "string"
        }
      ],
      "name": "addTask",
      "outputs": [],
      "stateMutability": "nonpayable",
      "type": "function"
    },
    {
      "inputs": [
        {
          "internalType": "string",
          "name": "_did",
          "type": "string"
        },
        {
          "internalType": "string",
          "name": "_uri",
          "type": "string"
        }
      ],
      "name": "addURI",
      "outputs": [],
      "stateMutability": "nonpayable",
      "type": "function"
    },
    {
      "inputs": [
        {
          "internalType": "string",
          "name": "",
          "type": "string"
        }
      ],
      "name": "didToTask",
      "outputs": [
        {
          "internalType": "address",
          "name": "caller",
          "type": "address"
        },
        {
          "internalType": "string",
          "name": "did",
          "type": "string"
        },
        {
          "internalType": "string",
          "name": "didDocument",
          "type": "string"
        }
      ],
      "stateMutability": "view",
      "type": "function"
    },
    {
      "inputs": [
        {
          "internalType": "string",
          "name": "_did",
          "type": "string"
        },
        {
          "internalType": "string",
          "name": "_uri",
          "type": "string"
        },
        {
          "internalType": "string",
          "name": "_title",
          "type": "string"
        },
        {
          "internalType": "string",
          "name": "_description",
          "type": "string"
        },
        {
          "internalType": "string",
          "name": "_status",
          "type": "string"
        },
        {
          "internalType": "uint256",
          "name": "_thours",
          "type": "uint256"
        }
      ],
      "name": "emitTaskCreated",
      "outputs": [],
      "stateMutability": "nonpayable",
      "type": "function"
    },
    {
      "inputs": [
        {
          "internalType": "string",
          "name": "_did",
          "type": "string"
        }
      ],
      "name": "getDocument",
      "outputs": [
        {
          "internalType": "string",
          "name": "",
          "type": "string"
        }
      ],
      "stateMutability": "view",
      "type": "function"
    },
    {
      "inputs": [
        {
          "internalType": "string",
          "name": "_did",
          "type": "string"
        }
      ],
      "name": "getURIs",
      "outputs": [
        {
          "internalType": "string[]",
          "name": "",
          "type": "string[]"
        }
      ],
      "stateMutability": "view",
      "type": "function"
    },
    {
      "inputs": [
        {
          "internalType": "string",
          "name": "_did",
          "type": "string"
        }
      ],
      "name": "hasTask",
      "outputs": [
        {
          "internalType": "bool",
          "name": "",
          "type": "bool"
        }
      ],
      "stateMutability": "view",
      "type": "function"
    },
    {
      "inputs": [],
      "name": "owner",
      "outputs": [
        {
          "internalType": "address",
          "name": "",
          "type": "address"
        }
      ],
      "stateMutability": "view",
      "type": "function"
    }
  ],
  "bytecode": "0x608060405234801561001057600080fd5b50336000806101000a81548173ffffffffffffffffffffffffffffffffffffffff021916908373ffffffffffffffffffffffffffffffffffffffff160217905550611148806100606000396000f3fe608060405234801561001057600080fd5b50600436106100885760003560e01c8063b37b10001161005b578063b37b100014610127578063c918cbce14610143578063d314e9bf14610175578063f5df65161461019157610088565b806307a6a6fa1461008d5780637ccb6a64146100bd5780638da5cb5b146100ed578063a80b4e201461010b575b600080fd5b6100a760048036038101906100a29190610a40565b6101c1565b6040516100b49190610de0565b60405180910390f35b6100d760048036038101906100d29190610a40565b61028c565b6040516100e49190610dfb565b60405180910390f35b6100f561033f565b6040516101029190610d5e565b60405180910390f35b61012560048036038101906101209190610a81565b610363565b005b610141600480360381019061013c9190610a81565b6103c2565b005b61015d60048036038101906101589190610a40565b610512565b60405161016c93929190610d79565b60405180910390f35b61018f600480360381019061018a9190610aed565b610682565b005b6101ab60048036038101906101a69190610a40565b6106cb565b6040516101b89190610dbe565b60405180910390f35b60006102856001836040516101d69190610d47565b908152602001604051809103902060010180546101f290611029565b80601f016020809104026020016040519081016040528092919081815260200182805461021e90611029565b801561026b5780601f106102405761010080835404028352916020019161026b565b820191906000526020600020905b81548152906001019060200180831161024e57829003601f168201915b5050505050604051806020016040528060008152506107c5565b9050919050565b606060018260405161029e9190610d47565b908152602001604051809103902060020180546102ba90611029565b80601f01602080910402602001604051908101604052809291908181526020018280546102e690611029565b80156103335780601f1061030857610100808354040283529160200191610333565b820191906000526020600020905b81548152906001019060200180831161031657829003601f168201915b50505050509050919050565b60008054906101000a900473ffffffffffffffffffffffffffffffffffffffff1681565b6001826040516103739190610d47565b9081526020016040518091039020600301819080600181540180825580915050600190039060005260206000200160009091909190915090805190602001906103bd92919061081e565b505050565b6103ca6108a4565b33816000019073ffffffffffffffffffffffffffffffffffffffff16908173ffffffffffffffffffffffffffffffffffffffff1681525050828160200181905250818160400181905250806001846040516104259190610d47565b908152602001604051809103902060008201518160000160006101000a81548173ffffffffffffffffffffffffffffffffffffffff021916908373ffffffffffffffffffffffffffffffffffffffff160217905550602082015181600101908051906020019061049692919061081e565b5060408201518160020190805190602001906104b392919061081e565b5060608201518160030190805190602001906104d09291906108e2565b509050507ff5205c34c62562119268110016dbe17b24c62a7327a4a7f6f69c5ad3237177fd8383604051610505929190610e1d565b60405180910390a1505050565b6001818051602081018201805184825260208301602085012081835280955050505050506000915090508060000160009054906101000a900473ffffffffffffffffffffffffffffffffffffffff169080600101805461057190611029565b80601f016020809104026020016040519081016040528092919081815260200182805461059d90611029565b80156105ea5780601f106105bf576101008083540402835291602001916105ea565b820191906000526020600020905b8154815290600101906020018083116105cd57829003601f168201915b5050505050908060020180546105ff90611029565b80601f016020809104026020016040519081016040528092919081815260200182805461062b90611029565b80156106785780601f1061064d57610100808354040283529160200191610678565b820191906000526020600020905b81548152906001019060200180831161065b57829003601f168201915b5050505050905083565b7fe23b90e5c091ae574ed0ec49cf29e39a4db2f728faf046fed0945c8ce7229c878686868686866040516106bb96959493929190610e54565b60405180910390a1505050505050565b60606001826040516106dd9190610d47565b9081526020016040518091039020600301805480602002602001604051908101604052809291908181526020016000905b828210156107ba57838290600052602060002001805461072d90611029565b80601f016020809104026020016040519081016040528092919081815260200182805461075990611029565b80156107a65780601f1061077b576101008083540402835291602001916107a6565b820191906000526020600020905b81548152906001019060200180831161078957829003601f168201915b50505050508152602001906001019061070e565b505050509050919050565b6000816040516020016107d89190610d47565b60405160208183030381529060405280519060200120836040516020016107ff9190610d47565b6040516020818303038152906040528051906020012014905092915050565b82805461082a90611029565b90600052602060002090601f01602090048101928261084c5760008555610893565b82601f1061086557805160ff1916838001178555610893565b82800160010185558215610893579182015b82811115610892578251825591602001919060010190610877565b5b5090506108a09190610942565b5090565b6040518060800160405280600073ffffffffffffffffffffffffffffffffffffffff1681526020016060815260200160608152602001606081525090565b828054828255906000526020600020908101928215610931579160200282015b8281111561093057825182908051906020019061092092919061081e565b5091602001919060010190610902565b5b50905061093e919061095f565b5090565b5b8082111561095b576000816000905550600101610943565b5090565b5b8082111561097f57600081816109769190610983565b50600101610960565b5090565b50805461098f90611029565b6000825580601f106109a157506109c0565b601f0160209004906000526020600020908101906109bf9190610942565b5b50565b60006109d66109d184610efd565b610ed8565b9050828152602081018484840111156109ee57600080fd5b6109f9848285610fe7565b509392505050565b600082601f830112610a1257600080fd5b8135610a228482602086016109c3565b91505092915050565b600081359050610a3a816110fb565b92915050565b600060208284031215610a5257600080fd5b600082013567ffffffffffffffff811115610a6c57600080fd5b610a7884828501610a01565b91505092915050565b60008060408385031215610a9457600080fd5b600083013567ffffffffffffffff811115610aae57600080fd5b610aba85828601610a01565b925050602083013567ffffffffffffffff811115610ad757600080fd5b610ae385828601610a01565b9150509250929050565b60008060008060008060c08789031215610b0657600080fd5b600087013567ffffffffffffffff811115610b2057600080fd5b610b2c89828a01610a01565b965050602087013567ffffffffffffffff811115610b4957600080fd5b610b5589828a01610a01565b955050604087013567ffffffffffffffff811115610b7257600080fd5b610b7e89828a01610a01565b945050606087013567ffffffffffffffff811115610b9b57600080fd5b610ba789828a01610a01565b935050608087013567ffffffffffffffff811115610bc457600080fd5b610bd089828a01610a01565b92505060a0610be189828a01610a2b565b9150509295509295509295565b6000610bfa8383610c95565b905092915050565b610c0b81610f9f565b82525050565b6000610c1c82610f3e565b610c268185610f61565b935083602082028501610c3885610f2e565b8060005b85811015610c745784840389528151610c558582610bee565b9450610c6083610f54565b925060208a01995050600181019050610c3c565b50829750879550505050505092915050565b610c8f81610fb1565b82525050565b6000610ca082610f49565b610caa8185610f72565b9350610cba818560208601610ff6565b610cc3816110ea565b840191505092915050565b6000610cd982610f49565b610ce38185610f83565b9350610cf3818560208601610ff6565b610cfc816110ea565b840191505092915050565b6000610d1282610f49565b610d1c8185610f94565b9350610d2c818560208601610ff6565b80840191505092915050565b610d4181610fdd565b82525050565b6000610d538284610d07565b915081905092915050565b6000602082019050610d736000830184610c02565b92915050565b6000606082019050610d8e6000830186610c02565b8181036020830152610da08185610cce565b90508181036040830152610db48184610cce565b9050949350505050565b60006020820190508181036000830152610dd88184610c11565b905092915050565b6000602082019050610df56000830184610c86565b92915050565b60006020820190508181036000830152610e158184610cce565b905092915050565b60006040820190508181036000830152610e378185610cce565b90508181036020830152610e4b8184610cce565b90509392505050565b600060c0820190508181036000830152610e6e8189610cce565b90508181036020830152610e828188610cce565b90508181036040830152610e968187610cce565b90508181036060830152610eaa8186610cce565b90508181036080830152610ebe8185610cce565b9050610ecd60a0830184610d38565b979650505050505050565b6000610ee2610ef3565b9050610eee828261105b565b919050565b6000604051905090565b600067ffffffffffffffff821115610f1857610f176110bb565b5b610f21826110ea565b9050602081019050919050565b6000819050602082019050919050565b600081519050919050565b600081519050919050565b6000602082019050919050565b600082825260208201905092915050565b600082825260208201905092915050565b600082825260208201905092915050565b600081905092915050565b6000610faa82610fbd565b9050919050565b60008115159050919050565b600073ffffffffffffffffffffffffffffffffffffffff82169050919050565b6000819050919050565b82818337600083830152505050565b60005b83811015611014578082015181840152602081019050610ff9565b83811115611023576000848401525b50505050565b6000600282049050600182168061104157607f821691505b602082108114156110555761105461108c565b5b50919050565b611064826110ea565b810181811067ffffffffffffffff82111715611083576110826110bb565b5b80604052505050565b7f4e487b7100000000000000000000000000000000000000000000000000000000600052602260045260246000fd5b7f4e487b7100000000000000000000000000000000000000000000000000000000600052604160045260246000fd5b6000601f19601f8301169050919050565b61110481610fdd565b811461110f57600080fd5b5056fea26469706673582212206f35d41e3f04e9ba6c970a591ece4b5fb905f2aa4d84a7f99ac1c0206a7de8f564736f6c63430008040033",
  "linkReferences": {},
  "deployedLinkReferences": {}
}