{
  "_format": "hh-sol-artifact-1",
  "contractName": "Tasks",
  "sourceName": "contracts/Tasks.sol",
  "abi": [
    {
      "inputs": [],
      "stateMutability": "nonpayable",
      "type": "constructor"
    },
    {
      "anonymous": false,
      "inputs": [
        {
          "indexed": false,
          "internalType": "string",
          "name": "did",
          "type": "string"
        },
        {
          "indexed": false,
          "internalType": "string",
          "name": "didDocument",
          "type": "string"
        }
      ],
      "name": "DocumentUpdated",
      "type": "event"
    },
    {
      "anonymous": false,
      "inputs": [
        {
          "indexed": false,
          "internalType": "string",
          "name": "did",
          "type": "string"
        },
        {
          "indexed": false,
          "internalType": "string",
          "name": "uri",
          "type": "string"
        },
        {
          "indexed": false,
          "internalType": "string",
          "name": "title",
          "type": "string"
        },
        {
          "indexed": false,
          "internalType": "string",
          "name": "description",
          "type": "string"
        },
        {
          "indexed": false,
          "internalType": "string",
          "name": "status",
          "type": "string"
        },
        {
          "indexed": false,
          "internalType": "uint256",
          "name": "thours",
          "type": "uint256"
        }
      ],
      "name": "TaskCreated",
      "type": "event"
    },
    {
      "inputs": [
        {
          "internalType": "string",
          "name": "_did",
          "type": "string"
        },
        {
          "internalType": "string",
          "name": "_uri",
          "type": "string"
        }
      ],
      "name": "addURI",
      "outputs": [],
      "stateMutability": "nonpayable",
      "type": "function"
    },
    {
      "inputs": [
        {
          "internalType": "string",
          "name": "",
          "type": "string"
        }
      ],
      "name": "didToTask",
      "outputs": [
        {
          "internalType": "address",
          "name": "caller",
          "type": "address"
        },
        {
          "internalType": "string",
          "name": "did",
          "type": "string"
        },
        {
          "internalType": "string",
          "name": "didDocument",
          "type": "string"
        }
      ],
      "stateMutability": "view",
      "type": "function"
    },
    {
      "inputs": [
        {
          "internalType": "string",
          "name": "_did",
          "type": "string"
        },
        {
          "internalType": "string",
          "name": "_uri",
          "type": "string"
        },
        {
          "internalType": "string",
          "name": "_title",
          "type": "string"
        },
        {
          "internalType": "string",
          "name": "_description",
          "type": "string"
        },
        {
          "internalType": "string",
          "name": "_status",
          "type": "string"
        },
        {
          "internalType": "uint256",
          "name": "_thours",
          "type": "uint256"
        }
      ],
      "name": "emitTaskCreated",
      "outputs": [],
      "stateMutability": "nonpayable",
      "type": "function"
    },
    {
      "inputs": [
        {
          "internalType": "string",
          "name": "_did",
          "type": "string"
        }
      ],
      "name": "getDocument",
      "outputs": [
        {
          "internalType": "string",
          "name": "",
          "type": "string"
        }
      ],
      "stateMutability": "view",
      "type": "function"
    },
    {
      "inputs": [
        {
          "internalType": "string",
          "name": "_did",
          "type": "string"
        }
      ],
      "name": "getURIs",
      "outputs": [
        {
          "internalType": "string[]",
          "name": "",
          "type": "string[]"
        }
      ],
      "stateMutability": "view",
      "type": "function"
    },
    {
      "inputs": [],
      "name": "owner",
      "outputs": [
        {
          "internalType": "address",
          "name": "",
          "type": "address"
        }
      ],
      "stateMutability": "view",
      "type": "function"
    },
    {
      "inputs": [
        {
          "internalType": "string",
          "name": "_did",
          "type": "string"
        },
        {
          "internalType": "string",
          "name": "_document",
          "type": "string"
        }
      ],
      "name": "setDocument",
      "outputs": [],
      "stateMutability": "nonpayable",
      "type": "function"
    }
  ],
  "bytecode": "0x608060405234801561001057600080fd5b50336000806101000a81548173ffffffffffffffffffffffffffffffffffffffff021916908373ffffffffffffffffffffffffffffffffffffffff160217905550610dd4806100606000396000f3fe608060405234801561001057600080fd5b506004361061007d5760003560e01c8063a80b4e201161005b578063a80b4e20146100ec578063c918cbce14610108578063d314e9bf1461013a578063f5df6516146101565761007d565b80637ccb6a64146100825780638da5cb5b146100b25780639c64d0ae146100d0575b600080fd5b61009c60048036038101906100979190610702565b610186565b6040516100a99190610a93565b60405180910390f35b6100ba610239565b6040516100c79190610a11565b60405180910390f35b6100ea60048036038101906100e59190610743565b61025d565b005b61010660048036038101906101019190610743565b6102d0565b005b610122600480360381019061011d9190610702565b61032f565b60405161013193929190610a2c565b60405180910390f35b610154600480360381019061014f91906107af565b61049f565b005b610170600480360381019061016b9190610702565b6104e8565b60405161017d9190610a71565b60405180910390f35b606060018260405161019891906109fa565b908152602001604051809103902060020180546101b490610cb5565b80601f01602080910402602001604051908101604052809291908181526020018280546101e090610cb5565b801561022d5780601f106102025761010080835404028352916020019161022d565b820191906000526020600020905b81548152906001019060200180831161021057829003601f168201915b50505050509050919050565b60008054906101000a900473ffffffffffffffffffffffffffffffffffffffff1681565b8060018360405161026e91906109fa565b908152602001604051809103902060020190805190602001906102929291906105e2565b507fbaa206e5ea800eb88bce099f453fee53295b793b9d5d1cfc4ce4b6db06a34f5382826040516102c4929190610ab5565b60405180910390a15050565b6001826040516102e091906109fa565b90815260200160405180910390206003018190806001815401808255809150506001900390600052602060002001600090919091909150908051906020019061032a9291906105e2565b505050565b6001818051602081018201805184825260208301602085012081835280955050505050506000915090508060000160009054906101000a900473ffffffffffffffffffffffffffffffffffffffff169080600101805461038e90610cb5565b80601f01602080910402602001604051908101604052809291908181526020018280546103ba90610cb5565b80156104075780601f106103dc57610100808354040283529160200191610407565b820191906000526020600020905b8154815290600101906020018083116103ea57829003601f168201915b50505050509080600201805461041c90610cb5565b80601f016020809104026020016040519081016040528092919081815260200182805461044890610cb5565b80156104955780601f1061046a57610100808354040283529160200191610495565b820191906000526020600020905b81548152906001019060200180831161047857829003601f168201915b5050505050905083565b7fe23b90e5c091ae574ed0ec49cf29e39a4db2f728faf046fed0945c8ce7229c878686868686866040516104d896959493929190610aec565b60405180910390a1505050505050565b60606001826040516104fa91906109fa565b9081526020016040518091039020600301805480602002602001604051908101604052809291908181526020016000905b828210156105d757838290600052602060002001805461054a90610cb5565b80601f016020809104026020016040519081016040528092919081815260200182805461057690610cb5565b80156105c35780601f10610598576101008083540402835291602001916105c3565b820191906000526020600020905b8154815290600101906020018083116105a657829003601f168201915b50505050508152602001906001019061052b565b505050509050919050565b8280546105ee90610cb5565b90600052602060002090601f0160209004810192826106105760008555610657565b82601f1061062957805160ff1916838001178555610657565b82800160010185558215610657579182015b8281111561065657825182559160200191906001019061063b565b5b5090506106649190610668565b5090565b5b80821115610681576000816000905550600101610669565b5090565b600061069861069384610b95565b610b70565b9050828152602081018484840111156106b057600080fd5b6106bb848285610c73565b509392505050565b600082601f8301126106d457600080fd5b81356106e4848260208601610685565b91505092915050565b6000813590506106fc81610d87565b92915050565b60006020828403121561071457600080fd5b600082013567ffffffffffffffff81111561072e57600080fd5b61073a848285016106c3565b91505092915050565b6000806040838503121561075657600080fd5b600083013567ffffffffffffffff81111561077057600080fd5b61077c858286016106c3565b925050602083013567ffffffffffffffff81111561079957600080fd5b6107a5858286016106c3565b9150509250929050565b60008060008060008060c087890312156107c857600080fd5b600087013567ffffffffffffffff8111156107e257600080fd5b6107ee89828a016106c3565b965050602087013567ffffffffffffffff81111561080b57600080fd5b61081789828a016106c3565b955050604087013567ffffffffffffffff81111561083457600080fd5b61084089828a016106c3565b945050606087013567ffffffffffffffff81111561085d57600080fd5b61086989828a016106c3565b935050608087013567ffffffffffffffff81111561088657600080fd5b61089289828a016106c3565b92505060a06108a389828a016106ed565b9150509295509295509295565b60006108bc8383610948565b905092915050565b6108cd81610c37565b82525050565b60006108de82610bd6565b6108e88185610bf9565b9350836020820285016108fa85610bc6565b8060005b85811015610936578484038952815161091785826108b0565b945061092283610bec565b925060208a019950506001810190506108fe565b50829750879550505050505092915050565b600061095382610be1565b61095d8185610c0a565b935061096d818560208601610c82565b61097681610d76565b840191505092915050565b600061098c82610be1565b6109968185610c1b565b93506109a6818560208601610c82565b6109af81610d76565b840191505092915050565b60006109c582610be1565b6109cf8185610c2c565b93506109df818560208601610c82565b80840191505092915050565b6109f481610c69565b82525050565b6000610a0682846109ba565b915081905092915050565b6000602082019050610a2660008301846108c4565b92915050565b6000606082019050610a4160008301866108c4565b8181036020830152610a538185610981565b90508181036040830152610a678184610981565b9050949350505050565b60006020820190508181036000830152610a8b81846108d3565b905092915050565b60006020820190508181036000830152610aad8184610981565b905092915050565b60006040820190508181036000830152610acf8185610981565b90508181036020830152610ae38184610981565b90509392505050565b600060c0820190508181036000830152610b068189610981565b90508181036020830152610b1a8188610981565b90508181036040830152610b2e8187610981565b90508181036060830152610b428186610981565b90508181036080830152610b568185610981565b9050610b6560a08301846109eb565b979650505050505050565b6000610b7a610b8b565b9050610b868282610ce7565b919050565b6000604051905090565b600067ffffffffffffffff821115610bb057610baf610d47565b5b610bb982610d76565b9050602081019050919050565b6000819050602082019050919050565b600081519050919050565b600081519050919050565b6000602082019050919050565b600082825260208201905092915050565b600082825260208201905092915050565b600082825260208201905092915050565b600081905092915050565b6000610c4282610c49565b9050919050565b600073ffffffffffffffffffffffffffffffffffffffff82169050919050565b6000819050919050565b82818337600083830152505050565b60005b83811015610ca0578082015181840152602081019050610c85565b83811115610caf576000848401525b50505050565b60006002820490506001821680610ccd57607f821691505b60208210811415610ce157610ce0610d18565b5b50919050565b610cf082610d76565b810181811067ffffffffffffffff82111715610d0f57610d0e610d47565b5b80604052505050565b7f4e487b7100000000000000000000000000000000000000000000000000000000600052602260045260246000fd5b7f4e487b7100000000000000000000000000000000000000000000000000000000600052604160045260246000fd5b6000601f19601f8301169050919050565b610d9081610c69565b8114610d9b57600080fd5b5056fea2646970667358221220b20275b29b67ef838dbc6e74852561c34c0ea189018176554e96d84bbc8998b064736f6c63430008040033",
  "linkReferences": {},
  "deployedLinkReferences": {}
}