{
  "_format": "hh-sol-artifact-1",
  "contractName": "Tasks",
  "sourceName": "contracts/Tasks.sol",
  "abi": [
    {
      "inputs": [],
      "stateMutability": "nonpayable",
      "type": "constructor"
    },
    {
      "anonymous": false,
      "inputs": [
        {
          "indexed": false,
          "internalType": "string",
          "name": "did",
          "type": "string"
        },
        {
          "indexed": false,
          "internalType": "string",
          "name": "didDocument",
          "type": "string"
        }
      ],
      "name": "DocumentUpdated",
      "type": "event"
    },
    {
      "anonymous": false,
      "inputs": [
        {
          "indexed": false,
          "internalType": "string",
          "name": "did",
          "type": "string"
        },
        {
          "indexed": false,
          "internalType": "string",
          "name": "didDocument",
          "type": "string"
        }
      ],
      "name": "NewUserCreated",
      "type": "event"
    },
    {
      "anonymous": false,
      "inputs": [
        {
          "indexed": false,
          "internalType": "string",
          "name": "did",
          "type": "string"
        },
        {
          "indexed": false,
          "internalType": "string",
          "name": "uri",
          "type": "string"
        },
        {
          "indexed": false,
          "internalType": "string",
          "name": "title",
          "type": "string"
        },
        {
          "indexed": false,
          "internalType": "string",
          "name": "description",
          "type": "string"
        },
        {
          "indexed": false,
          "internalType": "string",
          "name": "status",
          "type": "string"
        },
        {
          "indexed": false,
          "internalType": "uint256",
          "name": "thours",
          "type": "uint256"
        }
      ],
      "name": "TaskCreated",
      "type": "event"
    },
    {
      "inputs": [
        {
          "internalType": "string",
          "name": "_did",
          "type": "string"
        },
        {
          "internalType": "string",
          "name": "_document",
          "type": "string"
        }
      ],
      "name": "addTask",
      "outputs": [],
      "stateMutability": "nonpayable",
      "type": "function"
    },
    {
      "inputs": [
        {
          "internalType": "string",
          "name": "_did",
          "type": "string"
        },
        {
          "internalType": "string",
          "name": "_uri",
          "type": "string"
        }
      ],
      "name": "addURI",
      "outputs": [],
      "stateMutability": "nonpayable",
      "type": "function"
    },
    {
      "inputs": [
        {
          "internalType": "string",
          "name": "",
          "type": "string"
        }
      ],
      "name": "didToTask",
      "outputs": [
        {
          "internalType": "address",
          "name": "caller",
          "type": "address"
        },
        {
          "internalType": "string",
          "name": "did",
          "type": "string"
        },
        {
          "internalType": "string",
          "name": "didDocument",
          "type": "string"
        }
      ],
      "stateMutability": "view",
      "type": "function"
    },
    {
      "inputs": [
        {
          "internalType": "string",
          "name": "_did",
          "type": "string"
        },
        {
          "internalType": "string",
          "name": "_uri",
          "type": "string"
        },
        {
          "internalType": "string",
          "name": "_title",
          "type": "string"
        },
        {
          "internalType": "string",
          "name": "_description",
          "type": "string"
        },
        {
          "internalType": "string",
          "name": "_status",
          "type": "string"
        },
        {
          "internalType": "uint256",
          "name": "_thours",
          "type": "uint256"
        }
      ],
      "name": "emitTaskCreated",
      "outputs": [],
      "stateMutability": "nonpayable",
      "type": "function"
    },
    {
      "inputs": [
        {
          "internalType": "string",
          "name": "_did",
          "type": "string"
        }
      ],
      "name": "getDocument",
      "outputs": [
        {
          "internalType": "string",
          "name": "",
          "type": "string"
        }
      ],
      "stateMutability": "view",
      "type": "function"
    },
    {
      "inputs": [
        {
          "internalType": "string",
          "name": "_did",
          "type": "string"
        }
      ],
      "name": "getURIs",
      "outputs": [
        {
          "internalType": "string[]",
          "name": "",
          "type": "string[]"
        }
      ],
      "stateMutability": "view",
      "type": "function"
    },
    {
      "inputs": [
        {
          "internalType": "string",
          "name": "_did",
          "type": "string"
        }
      ],
      "name": "hasTask",
      "outputs": [
        {
          "internalType": "bool",
          "name": "",
          "type": "bool"
        }
      ],
      "stateMutability": "view",
      "type": "function"
    },
    {
      "inputs": [],
      "name": "owner",
      "outputs": [
        {
          "internalType": "address",
          "name": "",
          "type": "address"
        }
      ],
      "stateMutability": "view",
      "type": "function"
    },
    {
      "inputs": [
        {
          "internalType": "string",
          "name": "_did",
          "type": "string"
        },
        {
          "internalType": "string",
          "name": "_document",
          "type": "string"
        }
      ],
      "name": "setDocument",
      "outputs": [],
      "stateMutability": "nonpayable",
      "type": "function"
    }
  ],
  "bytecode": "0x608060405234801561001057600080fd5b50336000806101000a81548173ffffffffffffffffffffffffffffffffffffffff021916908373ffffffffffffffffffffffffffffffffffffffff1602179055506111e2806100606000396000f3fe608060405234801561001057600080fd5b50600436106100935760003560e01c8063a80b4e2011610066578063a80b4e2014610132578063b37b10001461014e578063c918cbce1461016a578063d314e9bf1461019c578063f5df6516146101b857610093565b806307a6a6fa146100985780637ccb6a64146100c85780638da5cb5b146100f85780639c64d0ae14610116575b600080fd5b6100b260048036038101906100ad9190610ada565b6101e8565b6040516100bf9190610e7a565b60405180910390f35b6100e260048036038101906100dd9190610ada565b6102b3565b6040516100ef9190610e95565b60405180910390f35b610100610366565b60405161010d9190610df8565b60405180910390f35b610130600480360381019061012b9190610b1b565b61038a565b005b61014c60048036038101906101479190610b1b565b6103fd565b005b61016860048036038101906101639190610b1b565b61045c565b005b610184600480360381019061017f9190610ada565b6105ac565b60405161019393929190610e13565b60405180910390f35b6101b660048036038101906101b19190610b87565b61071c565b005b6101d260048036038101906101cd9190610ada565b610765565b6040516101df9190610e58565b60405180910390f35b60006102ac6001836040516101fd9190610de1565b90815260200160405180910390206001018054610219906110c3565b80601f0160208091040260200160405190810160405280929190818152602001828054610245906110c3565b80156102925780601f1061026757610100808354040283529160200191610292565b820191906000526020600020905b81548152906001019060200180831161027557829003601f168201915b50505050506040518060200160405280600081525061085f565b9050919050565b60606001826040516102c59190610de1565b908152602001604051809103902060020180546102e1906110c3565b80601f016020809104026020016040519081016040528092919081815260200182805461030d906110c3565b801561035a5780601f1061032f5761010080835404028352916020019161035a565b820191906000526020600020905b81548152906001019060200180831161033d57829003601f168201915b50505050509050919050565b60008054906101000a900473ffffffffffffffffffffffffffffffffffffffff1681565b8060018360405161039b9190610de1565b908152602001604051809103902060020190805190602001906103bf9291906108b8565b507fbaa206e5ea800eb88bce099f453fee53295b793b9d5d1cfc4ce4b6db06a34f5382826040516103f1929190610eb7565b60405180910390a15050565b60018260405161040d9190610de1565b9081526020016040518091039020600301819080600181540180825580915050600190039060005260206000200160009091909190915090805190602001906104579291906108b8565b505050565b61046461093e565b33816000019073ffffffffffffffffffffffffffffffffffffffff16908173ffffffffffffffffffffffffffffffffffffffff1681525050828160200181905250818160400181905250806001846040516104bf9190610de1565b908152602001604051809103902060008201518160000160006101000a81548173ffffffffffffffffffffffffffffffffffffffff021916908373ffffffffffffffffffffffffffffffffffffffff16021790555060208201518160010190805190602001906105309291906108b8565b50604082015181600201908051906020019061054d9291906108b8565b50606082015181600301908051906020019061056a92919061097c565b509050507ff5205c34c62562119268110016dbe17b24c62a7327a4a7f6f69c5ad3237177fd838360405161059f929190610eb7565b60405180910390a1505050565b6001818051602081018201805184825260208301602085012081835280955050505050506000915090508060000160009054906101000a900473ffffffffffffffffffffffffffffffffffffffff169080600101805461060b906110c3565b80601f0160208091040260200160405190810160405280929190818152602001828054610637906110c3565b80156106845780601f1061065957610100808354040283529160200191610684565b820191906000526020600020905b81548152906001019060200180831161066757829003601f168201915b505050505090806002018054610699906110c3565b80601f01602080910402602001604051908101604052809291908181526020018280546106c5906110c3565b80156107125780601f106106e757610100808354040283529160200191610712565b820191906000526020600020905b8154815290600101906020018083116106f557829003601f168201915b5050505050905083565b7fe23b90e5c091ae574ed0ec49cf29e39a4db2f728faf046fed0945c8ce7229c8786868686868660405161075596959493929190610eee565b60405180910390a1505050505050565b60606001826040516107779190610de1565b9081526020016040518091039020600301805480602002602001604051908101604052809291908181526020016000905b828210156108545783829060005260206000200180546107c7906110c3565b80601f01602080910402602001604051908101604052809291908181526020018280546107f3906110c3565b80156108405780601f1061081557610100808354040283529160200191610840565b820191906000526020600020905b81548152906001019060200180831161082357829003601f168201915b5050505050815260200190600101906107a8565b505050509050919050565b6000816040516020016108729190610de1565b60405160208183030381529060405280519060200120836040516020016108999190610de1565b6040516020818303038152906040528051906020012014905092915050565b8280546108c4906110c3565b90600052602060002090601f0160209004810192826108e6576000855561092d565b82601f106108ff57805160ff191683800117855561092d565b8280016001018555821561092d579182015b8281111561092c578251825591602001919060010190610911565b5b50905061093a91906109dc565b5090565b6040518060800160405280600073ffffffffffffffffffffffffffffffffffffffff1681526020016060815260200160608152602001606081525090565b8280548282559060005260206000209081019282156109cb579160200282015b828111156109ca5782518290805190602001906109ba9291906108b8565b509160200191906001019061099c565b5b5090506109d891906109f9565b5090565b5b808211156109f55760008160009055506001016109dd565b5090565b5b80821115610a195760008181610a109190610a1d565b506001016109fa565b5090565b508054610a29906110c3565b6000825580601f10610a3b5750610a5a565b601f016020900490600052602060002090810190610a5991906109dc565b5b50565b6000610a70610a6b84610f97565b610f72565b905082815260208101848484011115610a8857600080fd5b610a93848285611081565b509392505050565b600082601f830112610aac57600080fd5b8135610abc848260208601610a5d565b91505092915050565b600081359050610ad481611195565b92915050565b600060208284031215610aec57600080fd5b600082013567ffffffffffffffff811115610b0657600080fd5b610b1284828501610a9b565b91505092915050565b60008060408385031215610b2e57600080fd5b600083013567ffffffffffffffff811115610b4857600080fd5b610b5485828601610a9b565b925050602083013567ffffffffffffffff811115610b7157600080fd5b610b7d85828601610a9b565b9150509250929050565b60008060008060008060c08789031215610ba057600080fd5b600087013567ffffffffffffffff811115610bba57600080fd5b610bc689828a01610a9b565b965050602087013567ffffffffffffffff811115610be357600080fd5b610bef89828a01610a9b565b955050604087013567ffffffffffffffff811115610c0c57600080fd5b610c1889828a01610a9b565b945050606087013567ffffffffffffffff811115610c3557600080fd5b610c4189828a01610a9b565b935050608087013567ffffffffffffffff811115610c5e57600080fd5b610c6a89828a01610a9b565b92505060a0610c7b89828a01610ac5565b9150509295509295509295565b6000610c948383610d2f565b905092915050565b610ca581611039565b82525050565b6000610cb682610fd8565b610cc08185610ffb565b935083602082028501610cd285610fc8565b8060005b85811015610d0e5784840389528151610cef8582610c88565b9450610cfa83610fee565b925060208a01995050600181019050610cd6565b50829750879550505050505092915050565b610d298161104b565b82525050565b6000610d3a82610fe3565b610d44818561100c565b9350610d54818560208601611090565b610d5d81611184565b840191505092915050565b6000610d7382610fe3565b610d7d818561101d565b9350610d8d818560208601611090565b610d9681611184565b840191505092915050565b6000610dac82610fe3565b610db6818561102e565b9350610dc6818560208601611090565b80840191505092915050565b610ddb81611077565b82525050565b6000610ded8284610da1565b915081905092915050565b6000602082019050610e0d6000830184610c9c565b92915050565b6000606082019050610e286000830186610c9c565b8181036020830152610e3a8185610d68565b90508181036040830152610e4e8184610d68565b9050949350505050565b60006020820190508181036000830152610e728184610cab565b905092915050565b6000602082019050610e8f6000830184610d20565b92915050565b60006020820190508181036000830152610eaf8184610d68565b905092915050565b60006040820190508181036000830152610ed18185610d68565b90508181036020830152610ee58184610d68565b90509392505050565b600060c0820190508181036000830152610f088189610d68565b90508181036020830152610f1c8188610d68565b90508181036040830152610f308187610d68565b90508181036060830152610f448186610d68565b90508181036080830152610f588185610d68565b9050610f6760a0830184610dd2565b979650505050505050565b6000610f7c610f8d565b9050610f8882826110f5565b919050565b6000604051905090565b600067ffffffffffffffff821115610fb257610fb1611155565b5b610fbb82611184565b9050602081019050919050565b6000819050602082019050919050565b600081519050919050565b600081519050919050565b6000602082019050919050565b600082825260208201905092915050565b600082825260208201905092915050565b600082825260208201905092915050565b600081905092915050565b600061104482611057565b9050919050565b60008115159050919050565b600073ffffffffffffffffffffffffffffffffffffffff82169050919050565b6000819050919050565b82818337600083830152505050565b60005b838110156110ae578082015181840152602081019050611093565b838111156110bd576000848401525b50505050565b600060028204905060018216806110db57607f821691505b602082108114156110ef576110ee611126565b5b50919050565b6110fe82611184565b810181811067ffffffffffffffff8211171561111d5761111c611155565b5b80604052505050565b7f4e487b7100000000000000000000000000000000000000000000000000000000600052602260045260246000fd5b7f4e487b7100000000000000000000000000000000000000000000000000000000600052604160045260246000fd5b6000601f19601f8301169050919050565b61119e81611077565b81146111a957600080fd5b5056fea264697066735822122039d1787fc3504a91af4819ac0dcf3b981b02eeba759a216b1f3df5987e908abc64736f6c63430008040033",
  "linkReferences": {},
  "deployedLinkReferences": {}
}