{
  "_format": "hh-sol-artifact-1",
  "contractName": "Tasks",
  "sourceName": "contracts/Tasks.sol",
  "abi": [
    {
      "inputs": [],
      "stateMutability": "nonpayable",
      "type": "constructor"
    },
    {
      "anonymous": false,
      "inputs": [
        {
          "indexed": false,
          "internalType": "string",
          "name": "title",
          "type": "string"
        },
        {
          "indexed": false,
          "internalType": "string",
          "name": "description",
          "type": "string"
        },
        {
          "indexed": false,
          "internalType": "string",
          "name": "status",
          "type": "string"
        },
        {
          "indexed": false,
          "internalType": "uint256",
          "name": "thours",
          "type": "uint256"
        }
      ],
      "name": "TaskCreated",
      "type": "event"
    },
    {
      "inputs": [
        {
          "internalType": "string",
          "name": "_did",
          "type": "string"
        }
      ],
      "name": "addDID",
      "outputs": [],
      "stateMutability": "nonpayable",
      "type": "function"
    },
    {
      "inputs": [
        {
          "internalType": "string",
          "name": "_title",
          "type": "string"
        },
        {
          "internalType": "string",
          "name": "_description",
          "type": "string"
        },
        {
          "internalType": "string",
          "name": "_status",
          "type": "string"
        },
        {
          "internalType": "uint256",
          "name": "_thours",
          "type": "uint256"
        }
      ],
      "name": "addTask",
      "outputs": [],
      "stateMutability": "nonpayable",
      "type": "function"
    },
    {
      "inputs": [],
      "name": "fetchAllDIDs",
      "outputs": [
        {
          "internalType": "string[]",
          "name": "",
          "type": "string[]"
        }
      ],
      "stateMutability": "view",
      "type": "function"
    },
    {
      "inputs": [],
      "name": "fetchAllTasks",
      "outputs": [
        {
          "components": [
            {
              "internalType": "string",
              "name": "title",
              "type": "string"
            },
            {
              "internalType": "string",
              "name": "description",
              "type": "string"
            },
            {
              "internalType": "string",
              "name": "status",
              "type": "string"
            },
            {
              "internalType": "uint256",
              "name": "thours",
              "type": "uint256"
            }
          ],
          "internalType": "struct Tasks.Task[]",
          "name": "",
          "type": "tuple[]"
        }
      ],
      "stateMutability": "view",
      "type": "function"
    },
    {
      "inputs": [
        {
          "internalType": "uint256",
          "name": "",
          "type": "uint256"
        }
      ],
      "name": "taskList",
      "outputs": [
        {
          "internalType": "string",
          "name": "title",
          "type": "string"
        },
        {
          "internalType": "string",
          "name": "description",
          "type": "string"
        },
        {
          "internalType": "string",
          "name": "status",
          "type": "string"
        },
        {
          "internalType": "uint256",
          "name": "thours",
          "type": "uint256"
        }
      ],
      "stateMutability": "view",
      "type": "function"
    }
  ],
  "bytecode": "0x608060405234801561001057600080fd5b50336000806101000a81548173ffffffffffffffffffffffffffffffffffffffff021916908373ffffffffffffffffffffffffffffffffffffffff160217905550610f00806100606000396000f3fe608060405234801561001057600080fd5b50600436106100575760003560e01c80632a1c52a51461005c578063b9ebcd5c1461008f578063d335b2bd146100ad578063de19eab0146100c9578063f5b05249146100e7575b600080fd5b610076600480360381019061007191906109c6565b610103565b6040516100869493929190610c46565b60405180910390f35b6100976102db565b6040516100a49190610c24565b60405180910390f35b6100c760048036038101906100c291906108da565b6104fa565b005b6100d1610591565b6040516100de9190610c02565b60405180910390f35b61010160048036038101906100fc919061091b565b61066a565b005b6002818154811061011357600080fd5b906000526020600020906004020160009150905080600001805461013690610de1565b80601f016020809104026020016040519081016040528092919081815260200182805461016290610de1565b80156101af5780601f10610184576101008083540402835291602001916101af565b820191906000526020600020905b81548152906001019060200180831161019257829003601f168201915b5050505050908060010180546101c490610de1565b80601f01602080910402602001604051908101604052809291908181526020018280546101f090610de1565b801561023d5780601f106102125761010080835404028352916020019161023d565b820191906000526020600020905b81548152906001019060200180831161022057829003601f168201915b50505050509080600201805461025290610de1565b80601f016020809104026020016040519081016040528092919081815260200182805461027e90610de1565b80156102cb5780601f106102a0576101008083540402835291602001916102cb565b820191906000526020600020905b8154815290600101906020018083116102ae57829003601f168201915b5050505050908060030154905084565b60606002805480602002602001604051908101604052809291908181526020016000905b828210156104f1578382906000526020600020906004020160405180608001604052908160008201805461033290610de1565b80601f016020809104026020016040519081016040528092919081815260200182805461035e90610de1565b80156103ab5780601f10610380576101008083540402835291602001916103ab565b820191906000526020600020905b81548152906001019060200180831161038e57829003601f168201915b505050505081526020016001820180546103c490610de1565b80601f01602080910402602001604051908101604052809291908181526020018280546103f090610de1565b801561043d5780601f106104125761010080835404028352916020019161043d565b820191906000526020600020905b81548152906001019060200180831161042057829003601f168201915b5050505050815260200160028201805461045690610de1565b80601f016020809104026020016040519081016040528092919081815260200182805461048290610de1565b80156104cf5780601f106104a4576101008083540402835291602001916104cf565b820191906000526020600020905b8154815290600101906020018083116104b257829003601f168201915b50505050508152602001600382015481525050815260200190600101906102ff565b50505050905090565b60008054906101000a900473ffffffffffffffffffffffffffffffffffffffff1673ffffffffffffffffffffffffffffffffffffffff163373ffffffffffffffffffffffffffffffffffffffff161461055257600080fd5b60018190806001815401808255809150506001900390600052602060002001600090919091909150908051906020019061058d9291906107ba565b5050565b60606001805480602002602001604051908101604052809291908181526020016000905b828210156106615783829060005260206000200180546105d490610de1565b80601f016020809104026020016040519081016040528092919081815260200182805461060090610de1565b801561064d5780601f106106225761010080835404028352916020019161064d565b820191906000526020600020905b81548152906001019060200180831161063057829003601f168201915b5050505050815260200190600101906105b5565b50505050905090565b60008054906101000a900473ffffffffffffffffffffffffffffffffffffffff1673ffffffffffffffffffffffffffffffffffffffff163373ffffffffffffffffffffffffffffffffffffffff16146106c257600080fd5b600060405180608001604052808681526020018581526020018481526020018381525090506002819080600181540180825580915050600190039060005260206000209060040201600090919091909150600082015181600001908051906020019061072f9291906107ba565b50602082015181600101908051906020019061074c9291906107ba565b5060408201518160020190805190602001906107699291906107ba565b506060820151816003015550507fe7b4f8dad6e66c4b45f947035ff51349470ff913fd69bd6aca1f36c05dc4aeee858585856040516107ab9493929190610c46565b60405180910390a15050505050565b8280546107c690610de1565b90600052602060002090601f0160209004810192826107e8576000855561082f565b82601f1061080157805160ff191683800117855561082f565b8280016001018555821561082f579182015b8281111561082e578251825591602001919060010190610813565b5b50905061083c9190610840565b5090565b5b80821115610859576000816000905550600101610841565b5090565b600061087061086b84610cc5565b610ca0565b90508281526020810184848401111561088857600080fd5b610893848285610d9f565b509392505050565b600082601f8301126108ac57600080fd5b81356108bc84826020860161085d565b91505092915050565b6000813590506108d481610eb3565b92915050565b6000602082840312156108ec57600080fd5b600082013567ffffffffffffffff81111561090657600080fd5b6109128482850161089b565b91505092915050565b6000806000806080858703121561093157600080fd5b600085013567ffffffffffffffff81111561094b57600080fd5b6109578782880161089b565b945050602085013567ffffffffffffffff81111561097457600080fd5b6109808782880161089b565b935050604085013567ffffffffffffffff81111561099d57600080fd5b6109a98782880161089b565b92505060606109ba878288016108c5565b91505092959194509250565b6000602082840312156109d857600080fd5b60006109e6848285016108c5565b91505092915050565b60006109fb8383610b01565b905092915050565b6000610a0f8383610b73565b905092915050565b6000610a2282610d16565b610a2c8185610d51565b935083602082028501610a3e85610cf6565b8060005b85811015610a7a5784840389528151610a5b85826109ef565b9450610a6683610d37565b925060208a01995050600181019050610a42565b50829750879550505050505092915050565b6000610a9782610d21565b610aa18185610d62565b935083602082028501610ab385610d06565b8060005b85811015610aef5784840389528151610ad08582610a03565b9450610adb83610d44565b925060208a01995050600181019050610ab7565b50829750879550505050505092915050565b6000610b0c82610d2c565b610b168185610d73565b9350610b26818560208601610dae565b610b2f81610ea2565b840191505092915050565b6000610b4582610d2c565b610b4f8185610d84565b9350610b5f818560208601610dae565b610b6881610ea2565b840191505092915050565b60006080830160008301518482036000860152610b908282610b01565b91505060208301518482036020860152610baa8282610b01565b91505060408301518482036040860152610bc48282610b01565b9150506060830151610bd96060860182610be4565b508091505092915050565b610bed81610d95565b82525050565b610bfc81610d95565b82525050565b60006020820190508181036000830152610c1c8184610a17565b905092915050565b60006020820190508181036000830152610c3e8184610a8c565b905092915050565b60006080820190508181036000830152610c608187610b3a565b90508181036020830152610c748186610b3a565b90508181036040830152610c888185610b3a565b9050610c976060830184610bf3565b95945050505050565b6000610caa610cbb565b9050610cb68282610e13565b919050565b6000604051905090565b600067ffffffffffffffff821115610ce057610cdf610e73565b5b610ce982610ea2565b9050602081019050919050565b6000819050602082019050919050565b6000819050602082019050919050565b600081519050919050565b600081519050919050565b600081519050919050565b6000602082019050919050565b6000602082019050919050565b600082825260208201905092915050565b600082825260208201905092915050565b600082825260208201905092915050565b600082825260208201905092915050565b6000819050919050565b82818337600083830152505050565b60005b83811015610dcc578082015181840152602081019050610db1565b83811115610ddb576000848401525b50505050565b60006002820490506001821680610df957607f821691505b60208210811415610e0d57610e0c610e44565b5b50919050565b610e1c82610ea2565b810181811067ffffffffffffffff82111715610e3b57610e3a610e73565b5b80604052505050565b7f4e487b7100000000000000000000000000000000000000000000000000000000600052602260045260246000fd5b7f4e487b7100000000000000000000000000000000000000000000000000000000600052604160045260246000fd5b6000601f19601f8301169050919050565b610ebc81610d95565b8114610ec757600080fd5b5056fea2646970667358221220f1b339a8fe23f550da97226629b6e3da8a6c4071adfbb39039da8c239fa6a35564736f6c63430008040033",
  "linkReferences": {},
  "deployedLinkReferences": {}
}